:020000040000FA
:10000000080B001029000010310000103300001010
:1000100000000000000000000000000000000000E0
:10002000000000000000000000000000350000108B
:100030000000000000000000370000103900001030
:100040003B0000103B0000103B0000103B00001084
:100050003B0000103B0000103B0000103B00001074
:100060003B0000103B0000103B0000103B00001064
:100070003B000010000000003B0000103B0000109F
:100080003B0000103B0000103B0000103B00001044
:100090003B0000103B0000100000000000000000CA
:1000A0003B0000103B0000103B000010000000006F
:1000B0003B0000103B0000103B0000103B00001014
:1000C00000F002F800F03AF80CA030C80838241804
:1000D0002D18A246671EAB4654465D46AC4201D180
:1000E00000F02CF87E460F3E0FCCB6460126334278
:1000F00000D0FB1AA246AB46334318474C00000021
:100100007C000000103A02D378C878C1FAD85207B0
:1001100001D330C830C101D504680C6070470000BD
:100120000023002400250026103A01D378C1FBD813
:10013000520700D330C100D50B60704703B40148AB
:10014000019001BD090000107801000000000010BE
:100150007C08000004010000F40900007C08001085
:100160000800000004010000FC09000084080010E1
:1001700084020000200100001FB51FBD10B510BD96
:1001800000F0D8F81146FFF7F7FF00F073FB00F01E
:10019000F0F803B4FFF7F2FF03BC00F0F7F800003B
:1001A0000748804707480047FEE7FEE7FEE7FEE70F
:1001B000FEE7FEE704480549034A054B7047000087
:1001C0006D030010C100000008090010080B0010AA
:1001D00008090010002203098B422CD3030A8B422A
:1001E00011D300239C464EE003460B433CD400222F
:1001F00043088B4231D303098B421CD3030A8B4241
:1002000001D394463FE0C3098B4201D3CB01C01A0E
:10021000524183098B4201D38B01C01A52414309D9
:100220008B4201D34B01C01A524103098B4201D3C7
:100230000B01C01A5241C3088B4201D3CB00C01A34
:10024000524183088B4201D38B00C01A52414308AC
:100250008B4201D34B00C01A5241411A00D20146D1
:100260005241104670475DE0CA0F00D0494203106A
:1002700000D34042534000229C4603098B422DD3B9
:10028000030A8B4212D3FC22890112BA030A8B4261
:100290000CD3890192118B4208D3890192118B42B0
:1002A00004D389013AD0921100E08909C3098B4235
:1002B00001D3CB01C01A524183098B4201D38B0178
:1002C000C01A524143098B4201D34B01C01A52411B
:1002D00003098B4201D30B01C01A5241C3088B4260
:1002E00001D3CB00C01A524183088B4201D38B004B
:1002F000C01A5241D9D243088B4201D34B00C01AD5
:100300005241411A00D20146634652415B101046E9
:1003100001D34042002B00D54942704763465B1031
:1003200000D3404201B50020C046C04602BD704720
:1003300070477047754600F025F8AE4605006946DF
:100340005346C008C000854618B020B5FFF732FFFD
:1003500060BC00274908B6460026C0C5C0C5C0C558
:10036000C0C5C0C5C0C5C0C5C0C5403D49008D465B
:10037000704710B50446C046C0462046FFF709FF47
:1003800010BD000000487047A40800100149182063
:10039000ABBEFEE726000200704708B500210091C1
:1003A0000121684600F040F96846007808BD01B5B3
:1003B0000121684600F088F908BD10B5044603E045
:1003C0002078641CFFF7F3FF20780028F8D110BDD7
:1003D00010B504462046FFF7F0FF02A0FFF7EDFF3F
:1003E00010BD00000A0D000070B50546284600F05B
:1003F0002DF80446322012490860084644608460A3
:100400001431104A90470E484069002801D001205D
:1004100070BD34200A4908600846446084600A4878
:1004200001680748C16001461431064A90470448F4
:100430004069002801D00120EAE70020E8E7000039
:1004400084080010F11FFF1F800800100146080BF0
:1004500070470000F8B506460F461446002E0ED130
:10046000616820684018A1684018E1684018216957
:10047000401861694018A16945186842E06130463A
:10048000FFF7E4FF0546322013490860084645603F
:1004900085601431114A90470F484069002801D007
:1004A0000120F8BD33200C4908600846466084608E
:1004B00001218902C1600A480168074801610146BB
:1004C0001431064A904704484069002801D00120B1
:1004D000E7E70020E5E7000084080010F11FFF1F98
:1004E000800800102B49896B20229143294A91638F
:1004F0000021294A1162002001E000BF401CC828E9
:10050000FBD30121244A4032116051600021516027
:100510000121516000BF204940314968C907C90F16
:100520000029F8D023211C4A91601A49896B802246
:100530009143184A916300BF1749C968C907C90F99
:100540000029F9D00321144A40321163012151637B
:10055000002151630121516300BF0F494031496BB4
:10056000C907C90F0029F8D00A49896B01229202F4
:100570001143084A91631146896B92151143054A4C
:1005800091630121044A403291630449024A803256
:100590001160704700820440008004405F00010049
:1005A00010B51E4800680121090308431B49086073
:1005B000012088611A48406AC008C0001849486292
:1005C0000846406A01210843154948620846806A86
:1005D000C008C00088620846806A012108431049AB
:1005E00088621048C068800880000E49C8600846CC
:1005F000C068032108430B49C8600846C0683C2115
:1006000088430849C860E120400200F087F80020D4
:10061000044948600720886010BD000080800440C5
:10062000804004400080004070B502460B461546ED
:100630001C46002016E00021C94303E0002900D138
:1006400006E0491E094E7669F607F60F002EF5D032
:1006500000BF002900D107E0044E36682E706D1CE3
:10066000641E401C002CE6D100BF70BD008000401D
:1006700030B50246116800201CE00023DB4303E094
:10068000002B00D106E05B1E0D4C6469E407E40F0B
:10069000002CF5D000BF002B00D10CE0084C2468E2
:1006A0000C70084CA14203D80D78491C002D00D1D4
:1006B00001E0401CE1E700BF4C1E2146146030BD44
:1006C00000800040FF7F0000F3B50B46009D1946F7
:1006D00000201DE00022D24303E0002A00D106E002
:1006E000521E0D4E766920273E40002EF5D000BFE9
:1006F000002A00D10EE0102406E02E78064F3E605E
:100700006D1C641E491E401C002C01D00029F4D130
:100710000029DFD100BFFCBD00800040F8B50446D1
:100720000E48866931460E480068FFF753FD0709F9
:1007300021463846FFF74EFD05460A48C06880212D
:1007400008430849C860280A4860E8B208600846BB
:10075000C068802188430349C860F8BD8080044098
:100760007C08001000800040FFF71AFF00F084F8BA
:1007700037E01DA0FFF72CFEFFF70FFE04462046D2
:10078000FFF715FE19A0FFF723FE612C1AD008DC35
:10079000412C18D0422C1BD0512C1ED0552C1DD1D1
:1007A00006E0622C13D0712C16D0752C16D100BF28
:1007B0000FA0FFF70DFE00F087F8002801D100F030
:1007C0007CF80CE000BF13A0FFF702FE07E000BFBB
:1007D00018A0FFF7FDFD02E000BF03E001E000BF4D
:1007E00000BFC6E700BFFEE70D0A3E0000000000A4
:1007F00055706C6F61642055736572204170706C28
:1008000069636174696F6E204669726D77617265A4
:1008100000000000526561642043757272656E7459
:10082000204170702056657273696F6E2049442EA6
:100830002E2E0000526561642043757272656E74DD
:1008400020426F6F746C6F616465722056657273BD
:10085000696F6E2049442E2E2E0000000146084686
:1008600002E00022026010300122920382189042BE
:10087000F7D37047FFF778FF10B503A0FFF7A8FD87
:100880000448FFF7A5FD10BD436F6D6D616E647385
:100890003A000000E807001038B504460D46012074
:1008A00040030090002C01D1012038BD6846FFF7BD
:1008B000DFFE2060009D0020F7E710B50120000357
:1008C0004468A047002010BDFEB5002401273F0367
:1008D0000025002000907E0072B607200003FFF77D
:1008E00083FD0446002C01D02046FEBD01A96846C8
:1008F000FFF7D2FF0446002C01D02046F5E72AE09E
:10090000A8020121490346183078694609798842CE
:1009100004DD68460079FFF767FD1DE0A8020121AC
:1009200009034718A807800F002806D13046FFF7B3
:1009300095FF3846FFF758FD0446002C06D1324695
:10094000012189023846FFF785FD0446002C01D1BC
:100950006D1C00E000E0D3E700BF62B62046C4E7AC
:1009600009092275223A2055706C6F616420557315
:100970006572204170706C69636174696F6E2046A6
:1009800069726D7761726509092261223A204765B3
:1009900074207468652076657273696F6E206F6667
:1009A000207468652063757272656E742061707062
:1009B0006C69636174696F6E09092262223A20478B
:1009C0006574207468652076657273696F6E206F38
:1009D00066207468652063757272656E7420626F3C
:1009E0006F746C6F6164657209092271223A20513B
:0C09F00075697400006CDC02000000005F
:04000005000000C136
:00000001FF
